{
  "_format": "hh-sol-artifact-1",
  "contractName": "XiuxianGame",
  "sourceName": "contracts/XiuxianGame.sol",
  "abi": [
    {
      "anonymous": false,
      "inputs": [
        {
          "indexed": true,
          "internalType": "address",
          "name": "player",
          "type": "address"
        },
        {
          "indexed": false,
          "internalType": "string",
          "name": "action",
          "type": "string"
        },
        {
          "indexed": false,
          "internalType": "uint256",
          "name": "damage",
          "type": "uint256"
        },
        {
          "indexed": false,
          "internalType": "uint256",
          "name": "playerHealth",
          "type": "uint256"
        },
        {
          "indexed": false,
          "internalType": "uint256",
          "name": "monsterHealth",
          "type": "uint256"
        }
      ],
      "name": "BattleAction",
      "type": "event"
    },
    {
      "anonymous": false,
      "inputs": [
        {
          "indexed": true,
          "internalType": "address",
          "name": "player",
          "type": "address"
        },
        {
          "indexed": false,
          "internalType": "bool",
          "name": "playerWon",
          "type": "bool"
        },
        {
          "indexed": false,
          "internalType": "uint256",
          "name": "reward",
          "type": "uint256"
        },
        {
          "indexed": false,
          "internalType": "string",
          "name": "item",
          "type": "string"
        }
      ],
      "name": "BattleEnded",
      "type": "event"
    },
    {
      "anonymous": false,
      "inputs": [
        {
          "indexed": true,
          "internalType": "address",
          "name": "attacker",
          "type": "address"
        },
        {
          "indexed": true,
          "internalType": "address",
          "name": "defender",
          "type": "address"
        },
        {
          "indexed": false,
          "internalType": "bool",
          "name": "attackerWon",
          "type": "bool"
        }
      ],
      "name": "BattleResult",
      "type": "event"
    },
    {
      "anonymous": false,
      "inputs": [
        {
          "indexed": true,
          "internalType": "address",
          "name": "player",
          "type": "address"
        },
        {
          "indexed": false,
          "internalType": "uint256",
          "name": "monsterId",
          "type": "uint256"
        },
        {
          "indexed": false,
          "internalType": "string",
          "name": "monsterName",
          "type": "string"
        }
      ],
      "name": "BattleStarted",
      "type": "event"
    },
    {
      "anonymous": false,
      "inputs": [
        {
          "indexed": true,
          "internalType": "address",
          "name": "player",
          "type": "address"
        },
        {
          "indexed": false,
          "internalType": "string",
          "name": "itemName",
          "type": "string"
        }
      ],
      "name": "ItemObtained",
      "type": "event"
    },
    {
      "anonymous": false,
      "inputs": [
        {
          "indexed": true,
          "internalType": "address",
          "name": "player",
          "type": "address"
        },
        {
          "indexed": false,
          "internalType": "uint256",
          "name": "newLevel",
          "type": "uint256"
        }
      ],
      "name": "LevelUp",
      "type": "event"
    },
    {
      "anonymous": false,
      "inputs": [
        {
          "indexed": true,
          "internalType": "address",
          "name": "player",
          "type": "address"
        },
        {
          "indexed": false,
          "internalType": "string",
          "name": "daoHao",
          "type": "string"
        }
      ],
      "name": "PlayerRegistered",
      "type": "event"
    },
    {
      "anonymous": false,
      "inputs": [
        {
          "indexed": true,
          "internalType": "address",
          "name": "player",
          "type": "address"
        }
      ],
      "name": "PlayerUpdated",
      "type": "event"
    },
    {
      "inputs": [
        {
          "internalType": "address",
          "name": "_player",
          "type": "address"
        },
        {
          "internalType": "string",
          "name": "_name",
          "type": "string"
        },
        {
          "internalType": "uint256",
          "name": "_itemType",
          "type": "uint256"
        },
        {
          "internalType": "uint256",
          "name": "_attackBonus",
          "type": "uint256"
        },
        {
          "internalType": "uint256",
          "name": "_defenseBonus",
          "type": "uint256"
        },
        {
          "internalType": "uint256",
          "name": "_value",
          "type": "uint256"
        }
      ],
      "name": "addItem",
      "outputs": [],
      "stateMutability": "nonpayable",
      "type": "function"
    },
    {
      "inputs": [
        {
          "internalType": "uint256",
          "name": "_monsterId",
          "type": "uint256"
        }
      ],
      "name": "attackMonster",
      "outputs": [],
      "stateMutability": "nonpayable",
      "type": "function"
    },
    {
      "inputs": [
        {
          "internalType": "address",
          "name": "",
          "type": "address"
        },
        {
          "internalType": "uint256",
          "name": "",
          "type": "uint256"
        }
      ],
      "name": "battleLogs",
      "outputs": [
        {
          "internalType": "string",
          "name": "",
          "type": "string"
        }
      ],
      "stateMutability": "view",
      "type": "function"
    },
    {
      "inputs": [],
      "name": "breakthrough",
      "outputs": [],
      "stateMutability": "nonpayable",
      "type": "function"
    },
    {
      "inputs": [
        {
          "internalType": "address",
          "name": "_opponent",
          "type": "address"
        }
      ],
      "name": "challengePlayer",
      "outputs": [],
      "stateMutability": "nonpayable",
      "type": "function"
    },
    {
      "inputs": [
        {
          "internalType": "uint256",
          "name": "_itemIndex",
          "type": "uint256"
        }
      ],
      "name": "equipItem",
      "outputs": [],
      "stateMutability": "nonpayable",
      "type": "function"
    },
    {
      "inputs": [
        {
          "internalType": "address",
          "name": "",
          "type": "address"
        },
        {
          "internalType": "uint256",
          "name": "",
          "type": "uint256"
        }
      ],
      "name": "equippedItems",
      "outputs": [
        {
          "internalType": "bool",
          "name": "",
          "type": "bool"
        }
      ],
      "stateMutability": "view",
      "type": "function"
    },
    {
      "inputs": [],
      "name": "generateRandomMonster",
      "outputs": [
        {
          "components": [
            {
              "internalType": "string",
              "name": "name",
              "type": "string"
            },
            {
              "internalType": "uint256",
              "name": "maxHealth",
              "type": "uint256"
            },
            {
              "internalType": "uint256",
              "name": "currentHealth",
              "type": "uint256"
            },
            {
              "internalType": "uint256",
              "name": "attack",
              "type": "uint256"
            },
            {
              "internalType": "uint256",
              "name": "defense",
              "type": "uint256"
            },
            {
              "internalType": "uint256",
              "name": "level",
              "type": "uint256"
            },
            {
              "internalType": "bool",
              "name": "isAlive",
              "type": "bool"
            }
          ],
          "internalType": "struct XiuxianGame.Monster",
          "name": "",
          "type": "tuple"
        }
      ],
      "stateMutability": "view",
      "type": "function"
    },
    {
      "inputs": [
        {
          "internalType": "address",
          "name": "_player",
          "type": "address"
        }
      ],
      "name": "getBattleLogs",
      "outputs": [
        {
          "internalType": "string[]",
          "name": "",
          "type": "string[]"
        }
      ],
      "stateMutability": "view",
      "type": "function"
    },
    {
      "inputs": [],
      "name": "getLeaderboard",
      "outputs": [
        {
          "internalType": "address[]",
          "name": "",
          "type": "address[]"
        },
        {
          "components": [
            {
              "internalType": "string",
              "name": "daoHao",
              "type": "string"
            },
            {
              "internalType": "uint256",
              "name": "level",
              "type": "uint256"
            },
            {
              "internalType": "uint256",
              "name": "xiuwei",
              "type": "uint256"
            },
            {
              "internalType": "uint256",
              "name": "health",
              "type": "uint256"
            },
            {
              "internalType": "uint256",
              "name": "maxHealth",
              "type": "uint256"
            },
            {
              "internalType": "uint256",
              "name": "attack",
              "type": "uint256"
            },
            {
              "internalType": "uint256",
              "name": "defense",
              "type": "uint256"
            },
            {
              "internalType": "uint256",
              "name": "gold",
              "type": "uint256"
            },
            {
              "internalType": "uint256",
              "name": "wins",
              "type": "uint256"
            },
            {
              "internalType": "uint256",
              "name": "losses",
              "type": "uint256"
            },
            {
              "internalType": "bool",
              "name": "isRegistered",
              "type": "bool"
            },
            {
              "internalType": "uint256",
              "name": "lastUpdateTime",
              "type": "uint256"
            }
          ],
          "internalType": "struct XiuxianGame.Player[]",
          "name": "",
          "type": "tuple[]"
        }
      ],
      "stateMutability": "view",
      "type": "function"
    },
    {
      "inputs": [],
      "name": "getMonsters",
      "outputs": [
        {
          "components": [
            {
              "internalType": "string",
              "name": "name",
              "type": "string"
            },
            {
              "internalType": "uint256",
              "name": "maxHealth",
              "type": "uint256"
            },
            {
              "internalType": "uint256",
              "name": "currentHealth",
              "type": "uint256"
            },
            {
              "internalType": "uint256",
              "name": "attack",
              "type": "uint256"
            },
            {
              "internalType": "uint256",
              "name": "defense",
              "type": "uint256"
            },
            {
              "internalType": "uint256",
              "name": "level",
              "type": "uint256"
            },
            {
              "internalType": "bool",
              "name": "isAlive",
              "type": "bool"
            }
          ],
          "internalType": "struct XiuxianGame.Monster[]",
          "name": "",
          "type": "tuple[]"
        }
      ],
      "stateMutability": "view",
      "type": "function"
    },
    {
      "inputs": [
        {
          "internalType": "address",
          "name": "_player",
          "type": "address"
        }
      ],
      "name": "getPlayer",
      "outputs": [
        {
          "components": [
            {
              "internalType": "string",
              "name": "daoHao",
              "type": "string"
            },
            {
              "internalType": "uint256",
              "name": "level",
              "type": "uint256"
            },
            {
              "internalType": "uint256",
              "name": "xiuwei",
              "type": "uint256"
            },
            {
              "internalType": "uint256",
              "name": "health",
              "type": "uint256"
            },
            {
              "internalType": "uint256",
              "name": "maxHealth",
              "type": "uint256"
            },
            {
              "internalType": "uint256",
              "name": "attack",
              "type": "uint256"
            },
            {
              "internalType": "uint256",
              "name": "defense",
              "type": "uint256"
            },
            {
              "internalType": "uint256",
              "name": "gold",
              "type": "uint256"
            },
            {
              "internalType": "uint256",
              "name": "wins",
              "type": "uint256"
            },
            {
              "internalType": "uint256",
              "name": "losses",
              "type": "uint256"
            },
            {
              "internalType": "bool",
              "name": "isRegistered",
              "type": "bool"
            },
            {
              "internalType": "uint256",
              "name": "lastUpdateTime",
              "type": "uint256"
            }
          ],
          "internalType": "struct XiuxianGame.Player",
          "name": "",
          "type": "tuple"
        }
      ],
      "stateMutability": "view",
      "type": "function"
    },
    {
      "inputs": [
        {
          "internalType": "address",
          "name": "_player",
          "type": "address"
        }
      ],
      "name": "getPlayerBattle",
      "outputs": [
        {
          "components": [
            {
              "internalType": "uint256",
              "name": "monsterId",
              "type": "uint256"
            },
            {
              "internalType": "bool",
              "name": "isActive",
              "type": "bool"
            },
            {
              "internalType": "uint256",
              "name": "playerInitialHealth",
              "type": "uint256"
            },
            {
              "internalType": "uint256",
              "name": "monsterInitialHealth",
              "type": "uint256"
            }
          ],
          "internalType": "struct XiuxianGame.Battle",
          "name": "",
          "type": "tuple"
        }
      ],
      "stateMutability": "view",
      "type": "function"
    },
    {
      "inputs": [
        {
          "internalType": "address",
          "name": "_player",
          "type": "address"
        }
      ],
      "name": "getPlayerItems",
      "outputs": [
        {
          "components": [
            {
              "internalType": "string",
              "name": "name",
              "type": "string"
            },
            {
              "internalType": "uint256",
              "name": "itemType",
              "type": "uint256"
            },
            {
              "internalType": "uint256",
              "name": "attackBonus",
              "type": "uint256"
            },
            {
              "internalType": "uint256",
              "name": "defenseBonus",
              "type": "uint256"
            },
            {
              "internalType": "uint256",
              "name": "value",
              "type": "uint256"
            },
            {
              "internalType": "bool",
              "name": "isEquipped",
              "type": "bool"
            }
          ],
          "internalType": "struct XiuxianGame.Item[]",
          "name": "",
          "type": "tuple[]"
        }
      ],
      "stateMutability": "view",
      "type": "function"
    },
    {
      "inputs": [],
      "name": "getRegisteredPlayersCount",
      "outputs": [
        {
          "internalType": "uint256",
          "name": "",
          "type": "uint256"
        }
      ],
      "stateMutability": "view",
      "type": "function"
    },
    {
      "inputs": [],
      "name": "heal",
      "outputs": [],
      "stateMutability": "nonpayable",
      "type": "function"
    },
    {
      "inputs": [],
      "name": "initializeMonsters",
      "outputs": [],
      "stateMutability": "nonpayable",
      "type": "function"
    },
    {
      "inputs": [],
      "name": "monsterCount",
      "outputs": [
        {
          "internalType": "uint256",
          "name": "",
          "type": "uint256"
        }
      ],
      "stateMutability": "view",
      "type": "function"
    },
    {
      "inputs": [
        {
          "internalType": "uint256",
          "name": "",
          "type": "uint256"
        }
      ],
      "name": "monsters",
      "outputs": [
        {
          "internalType": "string",
          "name": "name",
          "type": "string"
        },
        {
          "internalType": "uint256",
          "name": "maxHealth",
          "type": "uint256"
        },
        {
          "internalType": "uint256",
          "name": "currentHealth",
          "type": "uint256"
        },
        {
          "internalType": "uint256",
          "name": "attack",
          "type": "uint256"
        },
        {
          "internalType": "uint256",
          "name": "defense",
          "type": "uint256"
        },
        {
          "internalType": "uint256",
          "name": "level",
          "type": "uint256"
        },
        {
          "internalType": "bool",
          "name": "isAlive",
          "type": "bool"
        }
      ],
      "stateMutability": "view",
      "type": "function"
    },
    {
      "inputs": [
        {
          "internalType": "address",
          "name": "",
          "type": "address"
        }
      ],
      "name": "playerBattles",
      "outputs": [
        {
          "internalType": "uint256",
          "name": "monsterId",
          "type": "uint256"
        },
        {
          "internalType": "bool",
          "name": "isActive",
          "type": "bool"
        },
        {
          "internalType": "uint256",
          "name": "playerInitialHealth",
          "type": "uint256"
        },
        {
          "internalType": "uint256",
          "name": "monsterInitialHealth",
          "type": "uint256"
        }
      ],
      "stateMutability": "view",
      "type": "function"
    },
    {
      "inputs": [
        {
          "internalType": "address",
          "name": "",
          "type": "address"
        },
        {
          "internalType": "uint256",
          "name": "",
          "type": "uint256"
        }
      ],
      "name": "playerItems",
      "outputs": [
        {
          "internalType": "string",
          "name": "name",
          "type": "string"
        },
        {
          "internalType": "uint256",
          "name": "itemType",
          "type": "uint256"
        },
        {
          "internalType": "uint256",
          "name": "attackBonus",
          "type": "uint256"
        },
        {
          "internalType": "uint256",
          "name": "defenseBonus",
          "type": "uint256"
        },
        {
          "internalType": "uint256",
          "name": "value",
          "type": "uint256"
        },
        {
          "internalType": "bool",
          "name": "isEquipped",
          "type": "bool"
        }
      ],
      "stateMutability": "view",
      "type": "function"
    },
    {
      "inputs": [
        {
          "internalType": "address",
          "name": "",
          "type": "address"
        }
      ],
      "name": "players",
      "outputs": [
        {
          "internalType": "string",
          "name": "daoHao",
          "type": "string"
        },
        {
          "internalType": "uint256",
          "name": "level",
          "type": "uint256"
        },
        {
          "internalType": "uint256",
          "name": "xiuwei",
          "type": "uint256"
        },
        {
          "internalType": "uint256",
          "name": "health",
          "type": "uint256"
        },
        {
          "internalType": "uint256",
          "name": "maxHealth",
          "type": "uint256"
        },
        {
          "internalType": "uint256",
          "name": "attack",
          "type": "uint256"
        },
        {
          "internalType": "uint256",
          "name": "defense",
          "type": "uint256"
        },
        {
          "internalType": "uint256",
          "name": "gold",
          "type": "uint256"
        },
        {
          "internalType": "uint256",
          "name": "wins",
          "type": "uint256"
        },
        {
          "internalType": "uint256",
          "name": "losses",
          "type": "uint256"
        },
        {
          "internalType": "bool",
          "name": "isRegistered",
          "type": "bool"
        },
        {
          "internalType": "uint256",
          "name": "lastUpdateTime",
          "type": "uint256"
        }
      ],
      "stateMutability": "view",
      "type": "function"
    },
    {
      "inputs": [
        {
          "internalType": "string",
          "name": "_daoHao",
          "type": "string"
        }
      ],
      "name": "registerPlayer",
      "outputs": [],
      "stateMutability": "nonpayable",
      "type": "function"
    },
    {
      "inputs": [
        {
          "internalType": "uint256",
          "name": "",
          "type": "uint256"
        }
      ],
      "name": "registeredPlayers",
      "outputs": [
        {
          "internalType": "address",
          "name": "",
          "type": "address"
        }
      ],
      "stateMutability": "view",
      "type": "function"
    },
    {
      "inputs": [
        {
          "internalType": "uint256",
          "name": "_itemIndex",
          "type": "uint256"
        }
      ],
      "name": "sellItem",
      "outputs": [],
      "stateMutability": "nonpayable",
      "type": "function"
    },
    {
      "inputs": [
        {
          "internalType": "uint256",
          "name": "_itemIndex",
          "type": "uint256"
        }
      ],
      "name": "unequipItem",
      "outputs": [],
      "stateMutability": "nonpayable",
      "type": "function"
    },
    {
      "inputs": [
        {
          "internalType": "uint256",
          "name": "_xiuwei",
          "type": "uint256"
        }
      ],
      "name": "updateAndBreakthrough",
      "outputs": [],
      "stateMutability": "nonpayable",
      "type": "function"
    },
    {
      "inputs": [
        {
          "internalType": "uint256",
          "name": "_xiuwei",
          "type": "uint256"
        }
      ],
      "name": "updateAndHeal",
      "outputs": [],
      "stateMutability": "nonpayable",
      "type": "function"
    },
    {
      "inputs": [
        {
          "internalType": "uint256",
          "name": "_xiuwei",
          "type": "uint256"
        },
        {
          "internalType": "uint256",
          "name": "_health",
          "type": "uint256"
        },
        {
          "internalType": "uint256",
          "name": "_gold",
          "type": "uint256"
        }
      ],
      "name": "updatePlayer",
      "outputs": [],
      "stateMutability": "nonpayable",
      "type": "function"
    },
    {
      "inputs": [
        {
          "internalType": "uint256",
          "name": "_itemIndex",
          "type": "uint256"
        }
      ],
      "name": "useItem",
      "outputs": [],
      "stateMutability": "nonpayable",
      "type": "function"
    }
  ],
  "bytecode": "0x60806040526000600755348015601457600080fd5b50614c2c806100246000396000f3fe608060405234801561001057600080fd5b50600436106101da5760003560e01c806389a5b22911610104578063c6139f66116100a2578063dcbcd70211610071578063dcbcd702146104d1578063e2eb41ff146104d9578063e9240d1314610504578063f3b7f3081461051757600080fd5b8063c6139f6614610440578063c64118f51461047e578063c823ac941461049e578063cb07057a146104be57600080fd5b8063b693bff8116100de578063b693bff8146103e4578063ba816ac7146103ed578063c0576b7314610412578063c574b2eb1461043857600080fd5b806389a5b2291461039357806391b6be9a146103be578063b3446f85146103d157600080fd5b80633fb170c91161017c5780635d442a131161014b5780635d442a13146103025780636d763a6e146103155780636ddb84cf1461032b578063846e53761461034b57600080fd5b80633fb170c9146102aa57806343a511d5146102bc5780634dbc8611146102cf5780635c12cd4b146102e257600080fd5b80632193b5b5116101b85780632193b5b51461025a5780632229d3481461026f5780632cba362a14610282578063319e77131461029557600080fd5b80630434fe0b146101df57806305501a51146101e957806317b2a049146101fc575b600080fd5b6101e761052a565b005b6101e76101f7366004613fad565b610639565b61023561020a366004613fe2565b6005602052600090815260409020805460018201546002830154600390930154919260ff9091169184565b6040805194855292151560208501529183015260608201526080015b60405180910390f35b610262610743565b60405161025191906140b3565b6101e761027d366004613fad565b610a06565b6101e7610290366004613fad565b610d70565b61029d611069565b60405161025191906140c6565b6003545b604051908152602001610251565b6101e76102ca366004613fad565b611224565b6101e76102dd366004613fad565b611377565b6102f56102f0366004613fe2565b611558565b60405161025191906141ce565b6101e7610310366004613fad565b611693565b61031d61180f565b6040516102519291906141e1565b61033e610339366004613fe2565b611aa5565b604051610251919061428c565b61035e610359366004613fe2565b611b94565b604051610251919081518152602080830151151590820152604080830151908201526060918201519181019190915260800190565b6103a66103a1366004613fad565b611c14565b6040516001600160a01b039091168152602001610251565b6101e76103cc366004613fad565b611c3e565b6101e76103df36600461438a565b611d63565b6102ae60075481565b6104006103fb3660046143c7565b611fb0565b604051610251969594939291906143f1565b610425610420366004613fad565b612095565b604051610251979695949392919061442f565b6101e761215d565b61046e61044e3660046143c7565b600260209081526000928352604080842090915290825290205460ff1681565b6040519015158152602001610251565b61049161048c366004613fe2565b6122d5565b6040516102519190614475565b6104b16104ac3660046143c7565b61240e565b6040516102519190614515565b6101e76104cc366004614528565b6124c7565b6101e7612540565b6104ec6104e7366004613fe2565b612985565b6040516102519c9b9a99989796959493929190614554565b6101e7610512366004613fe2565b612a72565b6101e76105253660046145bf565b612cd0565b336000908152602081905260409020600a015460ff166105655760405162461bcd60e51b815260040161055c90614630565b60405180910390fd5b3360009081526020819052604090206002810154601411156105c95760405162461bcd60e51b815260206004820152601d60248201527f4e6f7420656e6f7567682078697577656920666f72206865616c696e67000000604482015260640161055c565b60148160020160008282546105de9190614675565b9091555050600481015460038201546105f890601461468e565b1161061257600381015461060d90601461468e565b610618565b80600401545b60038201556040513390600080516020614bd783398151915290600090a250565b336000908152602081905260409020600a015460ff1661066b5760405162461bcd60e51b815260040161055c90614630565b3360009081526020819052604090206002810182905560148210156106d25760405162461bcd60e51b815260206004820152601d60248201527f4e6f7420656e6f7567682078697577656920666f72206865616c696e67000000604482015260640161055c565b60148160020160008282546106e79190614675565b90915550506004810154600382015461070190601461468e565b1161071b57600381015461071690601461468e565b610721565b80600401545b60038201556040513390600080516020614bd783398151915290600090a25050565b6107856040518060e001604052806060815260200160008152602001600081526020016000815260200160008152602001600081526020016000151581525090565b6000600754116107d75760405162461bcd60e51b815260206004820152601860248201527f4d6f6e7374657273206e6f7420696e697469616c697a65640000000000000000604482015260640161055c565b6000600754423360405160200161080592919091825260601b6001600160601b031916602082015260340190565b6040516020818303038152906040528051906020012060001c61082891906146b7565b90506000600460008381526020019081526020016000206040518060e001604052908160008201805461085a906146cb565b80601f0160208091040260200160405190810160405280929190818152602001828054610886906146cb565b80156108d35780601f106108a8576101008083540402835291602001916108d3565b820191906000526020600020905b8154815290600101906020018083116108b657829003601f168201915b5050505050815260200160018201548152602001600282015481526020016003820154815260200160048201548152602001600582015481526020016006820160009054906101000a900460ff161515151581525050905060006029423360405160200161096792919091825260601b6001600160601b0319166020820152650d0cac2d8e8d60d31b6034820152603a0190565b6040516020818303038152906040528051906020012060001c61098a91906146b7565b61099590605061468e565b9050600060648284602001516109ab91906146ff565b6109b59190614716565b90506040518060e001604052808460000151815260200182815260200182815260200184606001518152602001846080015181526020018460a0015181526020016001151581525094505050505090565b336000908152602081905260409020600a015460ff16610a385760405162461bcd60e51b815260040161055c90614630565b6007548110610a825760405162461bcd60e51b8152602060048201526016602482015275135bdb9cdd195c88191bd95cc81b9bdd08195e1a5cdd60521b604482015260640161055c565b3360009081526005602052604090206001015460ff1615610ad95760405162461bcd60e51b8152602060048201526011602482015270416c726561647920696e20626174746c6560781b604482015260640161055c565b3360009081526020819052604090206003810154610b2a5760405162461bcd60e51b815260206004820152600e60248201526d141b185e595c881a5cc81919585960921b604482015260640161055c565b600082815260046020526040808220815160e08101909252805482908290610b51906146cb565b80601f0160208091040260200160405190810160405280929190818152602001828054610b7d906146cb565b8015610bca5780601f10610b9f57610100808354040283529160200191610bca565b820191906000526020600020905b815481529060010190602001808311610bad57829003601f168201915b5050505050815260200160018201548152602001600282015481526020016003820154815260200160048201548152602001600582015481526020016006820160009054906101000a900460ff16151515158152505090506000423385604051602001610c579392919092835260609190911b6001600160601b0319166020830152603482015260540190565b60408051601f19818403018152919052805160209091012090506000610c7e6029836146b7565b610c8990605061468e565b90506064818460200151610c9d91906146ff565b610ca79190614716565b602084810182905260408086019283528051608081018252888152600181840181815260038a81015484860190815296516060850190815233600090815260058852868120955186559251938501805460ff191694151594909417909355955160028401559051919094015560069091528120610d2391613eb9565b825160405133917fc08d40b5480fd349da04adc6e815c2390640fafc7b8ee8c0d9693f6c57e8cf8491610d5791899161472a565b60405180910390a2610d693384612dc4565b5050505050565b336000908152602081905260409020600a015460ff16610da25760405162461bcd60e51b815260040161055c90614630565b336000908152600160205260409020548110610dd05760405162461bcd60e51b815260040161055c90614743565b336000908152600160205260408120805483908110610df157610df1614770565b906000526020600020906006020190506001816001015410158015610e1b57506003816001015411155b610e675760405162461bcd60e51b815260206004820152601760248201527f4974656d2063616e6e6f74206265206571756970706564000000000000000000604482015260640161055c565b600581015460ff1615610eb45760405162461bcd60e51b8152602060048201526015602482015274125d195b48185b1c9958591e48195c5d5a5c1c1959605a1b604482015260640161055c565b3360009081526002602090815260408083206001850154845290915290205460ff1615610fc85760005b33600090815260016020526040902054811015610fc6576001808301543360009081526020929092526040909120805483908110610f1e57610f1e614770565b906000526020600020906006020160010154148015610f715750336000908152600160205260409020805482908110610f5957610f59614770565b600091825260209091206005600690920201015460ff165b15610fbe57336000908152600160205260408120805483908110610f9757610f97614770565b60009182526020909120600690910201600501805460ff1916911515919091179055610fc6565b600101610ede565b505b60058181018054600160ff199182168117909255336000818152600260208181526040808420878a01548552825280842080549096169096179094559181529182905291812091840154928201805492939290919061102890849061468e565b9091555050600382015460068201805460009061104690849061468e565b90915550506040513390600080516020614bd783398151915290600090a2505050565b6060600060075467ffffffffffffffff811115611088576110886142e5565b6040519080825280602002602001820160405280156110fb57816020015b6110e86040518060e001604052806060815260200160008152602001600081526020016000815260200160008152602001600081526020016000151581525090565b8152602001906001900390816110a65790505b50905060005b60075481101561121e5760008181526004602052604090819020815160e08101909252805482908290611133906146cb565b80601f016020809104026020016040519081016040528092919081815260200182805461115f906146cb565b80156111ac5780601f10611181576101008083540402835291602001916111ac565b820191906000526020600020905b81548152906001019060200180831161118f57829003601f168201915b505050918352505060018201546020820152600282015460408201526003820154606082015260048201546080820152600582015460a082015260069091015460ff16151560c090910152825183908390811061120b5761120b614770565b6020908102919091010152600101611101565b50919050565b336000908152602081905260409020600a015460ff166112565760405162461bcd60e51b815260040161055c90614630565b3360009081526001602052604090205481106112845760405162461bcd60e51b815260040161055c90614743565b3360009081526001602052604081208054839081106112a5576112a5614770565b60009182526020909120600690910201600581015490915060ff166113005760405162461bcd60e51b8152602060048201526011602482015270125d195b481b9bdd08195c5d5a5c1c1959607a1b604482015260640161055c565b6005808201805460ff199081169091553360008181526002602081815260408084206001890154855282528084208054909616909555928252918190529182209084015492810180549193929091611359908490614675565b90915550506003820154600682018054600090611046908490614675565b336000908152602081905260409020600a015460ff166113a95760405162461bcd60e51b815260040161055c90614630565b3360009081526001602052604090205481106113d75760405162461bcd60e51b815260040161055c90614743565b3360009081526001602052604081208054839081106113f8576113f8614770565b9060005260206000209060060201905080600101546004148061141f575080600101546005145b6114615760405162461bcd60e51b8152602060048201526013602482015272125d195b4818d85b9b9bdd081899481d5cd959606a1b604482015260640161055c565b600581015460ff16156114b65760405162461bcd60e51b815260206004820152601860248201527f43616e6e6f7420757365206571756970706564206974656d0000000000000000604482015260640161055c565b33600090815260208190526040902060018201546004036114f15760648160020160008282546114e6919061468e565b909155506115309050565b816001015460050361153057600081600301546032611510919061468e565b9050816004015481116115235780611529565b81600401545b6003830155505b61153a33846136f8565b6040513390600080516020614bd783398151915290600090a2505050565b611560613eda565b6001600160a01b0382166000908152602081905260409081902081516101808101909252805482908290611593906146cb565b80601f01602080910402602001604051908101604052809291908181526020018280546115bf906146cb565b801561160c5780601f106115e15761010080835404028352916020019161160c565b820191906000526020600020905b8154815290600101906020018083116115ef57829003601f168201915b505050918352505060018201546020820152600282015460408201526003820154606082015260048201546080820152600582015460a0820152600682015460c0820152600782015460e082015260088201546101008201526009820154610120820152600a82015460ff161515610140820152600b909101546101609091015292915050565b336000908152602081905260409020600a015460ff166116c55760405162461bcd60e51b815260040161055c90614630565b3360009081526020819052604090206002810182905560648210156116fc5760405162461bcd60e51b815260040161055c90614786565b60648160020160008282546117119190614675565b90915550506001818101805460009061172b90849061468e565b90915550506001818101546117409190614675565b61174b9060056146ff565b61175690600a61468e565b600582015560018082015461176b9190614675565b6117769060036146ff565b61178190600561468e565b60068201556001808201546117969190614675565b6117a19060146146ff565b6117ac90606461468e565b600482018190556003820155600181015460405190815233907f91e51c29e7e87a74ad3b8ccba98538970f50a4309242735467f41e27c6b0fbac9060200160405180910390a26040513390600080516020614bd783398151915290600090a25050565b600354606090819060008167ffffffffffffffff811115611832576118326142e5565b60405190808252806020026020018201604052801561185b578160200160208202803683370190505b50905060008267ffffffffffffffff811115611879576118796142e5565b6040519080825280602002602001820160405280156118b257816020015b61189f613eda565b8152602001906001900390816118975790505b50905060005b83811015611a9a57600381815481106118d3576118d3614770565b9060005260206000200160009054906101000a90046001600160a01b031683828151811061190357611903614770565b60200260200101906001600160a01b031690816001600160a01b0316815250506000806003838154811061193957611939614770565b60009182526020808320909101546001600160a01b03168352820192909252604090810190912081516101808101909252805482908290611979906146cb565b80601f01602080910402602001604051908101604052809291908181526020018280546119a5906146cb565b80156119f25780601f106119c7576101008083540402835291602001916119f2565b820191906000526020600020905b8154815290600101906020018083116119d557829003601f168201915b505050918352505060018201546020820152600282015460408201526003820154606082015260048201546080820152600582015460a0820152600682015460c0820152600782015460e082015260088201546101008201526009820154610120820152600a82015460ff161515610140820152600b90910154610160909101528251839083908110611a8757611a87614770565b60209081029190910101526001016118b8565b509094909350915050565b6001600160a01b0381166000908152600660209081526040808320805482518185028101850190935280835260609492939192909184015b82821015611b89578382906000526020600020018054611afc906146cb565b80601f0160208091040260200160405190810160405280929190818152602001828054611b28906146cb565b8015611b755780601f10611b4a57610100808354040283529160200191611b75565b820191906000526020600020905b815481529060010190602001808311611b5857829003601f168201915b505050505081526020019060010190611add565b505050509050919050565b611bc160405180608001604052806000815260200160001515815260200160008152602001600081525090565b506001600160a01b0316600090815260056020908152604091829020825160808101845281548152600182015460ff16151592810192909252600281015492820192909252600390910154606082015290565b60038181548110611c2457600080fd5b6000918252602090912001546001600160a01b0316905081565b336000908152602081905260409020600a015460ff16611c705760405162461bcd60e51b815260040161055c90614630565b336000908152600160205260409020548110611c9e5760405162461bcd60e51b815260040161055c90614743565b336000908152600160205260408120805483908110611cbf57611cbf614770565b60009182526020909120600690910201600581015490915060ff1615611d275760405162461bcd60e51b815260206004820152601960248201527f43616e6e6f742073656c6c206571756970706564206974656d00000000000000604482015260640161055c565b336000908152602081905260408120600483015460078201805492939192909190611d5390849061468e565b9091555061153a905033846136f8565b336000908152602081905260409020600a015460ff1615611dc65760405162461bcd60e51b815260206004820152601960248201527f506c6179657220616c7265616479207265676973746572656400000000000000604482015260640161055c565b6000815111611e175760405162461bcd60e51b815260206004820152601760248201527f44616f2068616f2063616e6e6f7420626520656d707479000000000000000000604482015260640161055c565b604080516101808101825282815260016020808301829052600083850181905260646060850181905260808501819052600a60a0860152600560c086015260e085015261010084018190526101208401819052610140840192909252426101608401523382528190529190912081518190611e929082614814565b5060208201516001828101919091556040830151600283015560608301516003808401919091556080840151600484015560a0840151600584015560c0840151600684015560e0840151600784015561010084015160088401556101208401516009840155610140840151600a8401805460ff191691151591909117905561016090930151600b90920191909155815490810182556000919091527fc2575a0e9e593c00f959f8c92f12db2869c3395a3b0502d05e2516446f71f85b018054336001600160a01b03199091168117909155611f6c906138b3565b336001600160a01b03167fe04d23b73ae3d3b27074da9719b5a4cd521395aaf86bfe7e374933ecb567731a82604051611fa59190614515565b60405180910390a250565b60016020528160005260406000208181548110611fcc57600080fd5b906000526020600020906006020160009150915050806000018054611ff0906146cb565b80601f016020809104026020016040519081016040528092919081815260200182805461201c906146cb565b80156120695780601f1061203e57610100808354040283529160200191612069565b820191906000526020600020905b81548152906001019060200180831161204c57829003601f168201915b505050600184015460028501546003860154600487015460059097015495969295919450925060ff1686565b6004602052600090815260409020805481906120b0906146cb565b80601f01602080910402602001604051908101604052809291908181526020018280546120dc906146cb565b80156121295780601f106120fe57610100808354040283529160200191612129565b820191906000526020600020905b81548152906001019060200180831161210c57829003601f168201915b5050506001840154600285015460038601546004870154600588015460069098015496979396929550909350919060ff1687565b336000908152602081905260409020600a015460ff1661218f5760405162461bcd60e51b815260040161055c90614630565b3360009081526020819052604090206002810154606411156121c35760405162461bcd60e51b815260040161055c90614786565b60648160020160008282546121d89190614675565b9091555050600181810180546000906121f290849061468e565b90915550506001818101546122079190614675565b6122129060056146ff565b61221d90600a61468e565b60058201556001808201546122329190614675565b61223d9060036146ff565b61224890600561468e565b600682015560018082015461225d9190614675565b6122689060146146ff565b61227390606461468e565b600482018190556003820155600181015460405190815233907f91e51c29e7e87a74ad3b8ccba98538970f50a4309242735467f41e27c6b0fbac9060200160405180910390a26040513390600080516020614bd783398151915290600090a250565b6001600160a01b0381166000908152600160209081526040808320805482518185028101850190935280835260609492939192909184015b82821015611b8957838290600052602060002090600602016040518060c0016040529081600082018054612340906146cb565b80601f016020809104026020016040519081016040528092919081815260200182805461236c906146cb565b80156123b95780601f1061238e576101008083540402835291602001916123b9565b820191906000526020600020905b81548152906001019060200180831161239c57829003601f168201915b505050918352505060018281015460208084019190915260028401546040840152600384015460608401526004840154608084015260059093015460ff16151560a0909201919091529183529201910161230d565b6006602052816000526040600020818154811061242a57600080fd5b90600052602060002001600091509150508054612446906146cb565b80601f0160208091040260200160405190810160405280929190818152602001828054612472906146cb565b80156124bf5780601f10612494576101008083540402835291602001916124bf565b820191906000526020600020905b8154815290600101906020018083116124a257829003601f168201915b505050505081565b336000908152602081905260409020600a015460ff166124f95760405162461bcd60e51b815260040161055c90614630565b3360008181526020819052604080822060028101879055600381018690556007810185905542600b8201559051909291600080516020614bd783398151915291a250505050565b600754600003612983576040805161012081018252600560e0820190815264536c696d6560d81b6101008301528152601e6020808301829052928201526008606082015260026080820152600160a0820181905260c082015260008052600490915280517f17ef568e3e12ab5b9c7254a8d58478811de00f9e6eb34345acd53bf8fd09d3ec9081906125d29082614814565b506020820151816001015560408201518160020155606082015181600301556080820151816004015560a0820151816005015560c08201518160060160006101000a81548160ff0219169083151502179055509050506040518060e001604052806040518060400160405280600681526020016523b7b13634b760d11b81525081526020016032815260200160328152602001600c8152602001600381526020016002815260200160011515815250600460006001815260200190815260200160002060008201518160000190816126aa9190614814565b506020820151816001015560408201518160020155606082015181600301556080820151816004015560a0820151816005015560c08201518160060160006101000a81548160ff0219169083151502179055509050506040518060e00160405280604051806040016040528060038152602001624f726360e81b81525081526020016050815260200160508152602001601281526020016005815260200160038152602001600115158152506004600060028152602001908152602001600020600082015181600001908161277f9190614814565b506020820151816001015560408201518160020155606082015181600301556080820151816004015560a0820151816005015560c08201518160060160006101000a81548160ff0219169083151502179055509050506040518060e0016040528060405180604001604052806005815260200164151c9bdb1b60da1b8152508152602001607881526020016078815260200160198152602001600881526020016004815260200160011515815250600460006003815260200190815260200160002060008201518160000190816128569190614814565b506020820151816001015560408201518160020155606082015181600301556080820151816004015560a0820151816005015560c08201518160060160006101000a81548160ff0219169083151502179055509050506040518060e0016040528060405180604001604052806006815260200165223930b3b7b760d11b815250815260200160c8815260200160c8815260200160288152602001600f815260200160058152602001600115158152506004600060048152602001908152602001600020600082015181600001908161292e9190614814565b506020820151600182015560408201516002820155606082015160038201556080820151600482015560a082015160058083019190915560c0909201516006909101805460ff19169115159190911790556007555b565b6000602081905290815260409020805481906129a0906146cb565b80601f01602080910402602001604051908101604052809291908181526020018280546129cc906146cb565b8015612a195780601f106129ee57610100808354040283529160200191612a19565b820191906000526020600020905b8154815290600101906020018083116129fc57829003601f168201915b50505050509080600101549080600201549080600301549080600401549080600501549080600601549080600701549080600801549080600901549080600a0160009054906101000a900460ff169080600b015490508c565b336000908152602081905260409020600a015460ff16612aa45760405162461bcd60e51b815260040161055c90614630565b6001600160a01b0381166000908152602081905260409020600a015460ff16612b0f5760405162461bcd60e51b815260206004820152601760248201527f4f70706f6e656e74206e6f742072656769737465726564000000000000000000604482015260640161055c565b336001600160a01b03821603612b675760405162461bcd60e51b815260206004820152601960248201527f43616e6e6f74206368616c6c656e676520796f757273656c6600000000000000604482015260640161055c565b336000908152602081905260408082206001600160a01b0384168352908220600182015491929091612b9a9060026146ff565b8360050154612ba9919061468e565b9050600082600101546002612bbe91906146ff565b8360060154612bcd919061468e565b90508082118015612c14576001856008016000828254612bed919061468e565b925050819055506001846009016000828254612c09919061468e565b90915550612c4b9050565b6001856009016000828254612c29919061468e565b925050819055506001846008016000828254612c45919061468e565b90915550505b60405181151581526001600160a01b0387169033907fcd99ebcbb6c7824bebc9f9b71ce6415d1cf7515bac8c494d896f0c833620c3e19060200160405180910390a36040513390600080516020614bd783398151915290600090a26040516001600160a01b03871690600080516020614bd783398151915290600090a2505050505050565b6001600160a01b0386166000908152600160208181526040808420815160c0810183528a81528084018a9052918201889052606082018790526080820186905260a0820185905280549384018155845292208251600690920201908190612d379082614814565b50602082015160018201556040808301516002830155606083015160038301556080830151600483015560a0909201516005909101805460ff1916911515919091179055516001600160a01b038716907f42ff62d5cd0de6db3df4fdcb23d384f0df44d3409a1d8e17b35bbe800f1c408990612db4908890614515565b60405180910390a2505050505050565b6001600160a01b038216600090815260208181526040808320600592839052928190209183015460068401546003850154928601519192909160605b600083118015612e105750600082115b1561305257600088608001518611612e29576001612e38565b6080890151612e389087614675565b9050808311612e48576000612e52565b612e528184614675565b8951909350612e6082613d8d565b604051602001612e719291906148d6565b60408051601f198184030181529181526001600160a01b038c16600090815260066020908152918120805460018101825590825291902091935001612eb68382614814565b50604080516080808252600d908201526c706c617965725f61747461636b60981b60a082015260208101839052908101859052606081018490526001600160a01b038b16907f7deb8185a14895558fe596806a669ab1f255dc43acf1a2f95caf9a6d0e28b6c69060c00160405180910390a282600003612f365750613052565b6000858a6060015111612f4a576001612f5a565b858a60600151612f5a9190614675565b9050808511612f6a576000612f74565b612f748186614675565b8a51909550612f8282613d8d565b604051602001612f93929190614941565b60408051601f198184030181529181526001600160a01b038d16600090815260066020908152918120805460018101825590825291902091945001612fd88482614814565b50604080516080808252600e908201526d6d6f6e737465725f61747461636b60901b60a082015260208101839052908101869052606081018590526001600160a01b038c16907f7deb8185a14895558fe596806a669ab1f255dc43acf1a2f95caf9a6d0e28b6c69060c00160405180910390a25050612e00565b6003870183905560018601805460ff1916905560408051602081019091526000808252908415613632576001600160a01b038b1660009081526006602090815260408083208054600181018255908452828420825160608101909352602280845291019392614bb5908301396130c9915082614814565b506014428c6040516020016130f592919091825260601b6001600160601b031916602082015260340190565b6040516020818303038152906040528051906020012060001c61311891906146b7565b60a08b015161312890600a6146ff565b613132919061468e565b915081896007016000828254613148919061468e565b909155505060a08a01516000906131609060056146ff565b9050808a6002016000828254613176919061468e565b925050819055506003600a428e6040516020016131b792919091825260601b6001600160601b0319166020820152636974656d60e01b603482015260380190565b6040516020818303038152906040528051906020012060001c6131da91906146b7565b10156135c05760028b60a001511161331a576040518060400160405280600e81526020016d2432b0b634b733902837ba34b7b760911b8152509150600160008d6001600160a01b03166001600160a01b031681526020019081526020016000206040518060c001604052806040518060400160405280600e81526020016d2432b0b634b733902837ba34b7b760911b81525081526020016005815260200160008152602001600081526020016008815260200160001515815250908060018154018082558091505060019003906000526020600020906006020160009091909190915060008201518160000190816132d29190614814565b506020820151600182015560408201516002820155606082015160038201556080820151600482015560a0909101516005909101805460ff191691151591909117905561351c565b60048b60a00151116133fe5760405180604001604052806007815260200166145a48141a5b1b60ca1b8152509150600160008d6001600160a01b03166001600160a01b031681526020019081526020016000206040518060c0016040528060405180604001604052806007815260200166145a48141a5b1b60ca1b8152508152602001600581526020016000815260200160008152602001600f815260200160001515815250908060018154018082558091505060019003906000526020600020906006020160009091909190915060008201518160000190816132d29190614814565b60405180604001604052806008815260200167526172652047656d60c01b8152509150600160008d6001600160a01b03166001600160a01b031681526020019081526020016000206040518060c0016040528060405180604001604052806008815260200167526172652047656d60c01b81525081526020016005815260200160008152602001600081526020016032815260200160001515815250908060018154018082558091505060019003906000526020600020906006020160009091909190915060008201518160000190816134d89190614814565b506020820151600182015560408201516002820155606082015160038201556080820151600482015560a0909101516005909101805460ff19169115159190911790555b8151156135c0578b6001600160a01b03167f42ff62d5cd0de6db3df4fdcb23d384f0df44d3409a1d8e17b35bbe800f1c40898360405161355c9190614515565b60405180910390a26001600160a01b038c16600090815260066020908152604091829020915161358e918591016149a1565b60408051601f19818403018152919052815460018101835560009283526020909220909101906135be9082614814565b505b60006135cb84613d8d565b6135d483613d8d565b6040516020016135e59291906149d4565b60408051601f198184030181529181526001600160a01b038f1660009081526006602090815291812080546001810182559082529190209192500161362a8282614814565b505050613681565b6001600160a01b038b1660009081526006602090815260408083208054600181018255908452828420825160608101909352602980845291019392614b8c9083013961367f915082614814565b505b8a6001600160a01b03167f3addfb38efddc47c3670cdeb67f7a9064858ac61d2ba70deb32653574d089ef76000871184846040516136c193929190614a44565b60405180910390a26040516001600160a01b038c1690600080516020614bd783398151915290600090a25050505050505050505050565b6001600160a01b038216600090815260016020526040902054811061375f5760405162461bcd60e51b815260206004820152601860248201527f4974656d20696e646578206f7574206f6620626f756e64730000000000000000604482015260640161055c565b6001600160a01b03821660009081526001602081905260409091208054909161378791614675565b8154811061379757613797614770565b906000526020600020906006020160016000846001600160a01b03166001600160a01b0316815260200190815260200160002082815481106137db576137db614770565b60009182526020909120600690910201806137f68382614a6e565b506001828101548282015560028084015490830155600380840154908301556004808401549083015560059283015492909101805460ff191660ff9093161515929092179091556001600160a01b03831660009081526020919091526040902080548061386557613865614b43565b600082815260208120600019909201916006830201906138858282613f3d565b5060006001820181905560028201819055600382018190556004820155600501805460ff1916905590555050565b6001600160a01b0381166000908152600160208181526040808420815161010081018352600c60c082019081526b15dbdbd9195b8814dddbdc9960a21b60e0830152815280840185905260059281019290925260608201859052600a608083015260a082018590528054938401815584529220825160069092020190819061393b9082614814565b50602082810151600183810191909155604080850151600280860191909155606080870151600380880191909155608080890151600489015560a0988901516005909801805460ff1916981515989098179097556001600160a01b0389166000908152858752848120855161010081018752600a60c0820190815269436c6f746820526f626560b01b60e08301528152808901959095529484018190529183015260089582019590955294850184905280549182018155835291208251600690920201908190613a0b9082614814565b506020828101516001838101919091556040808501516002850155606080860151600380870191909155608080880151600488015560a0978801516005909701805460ff1916971515979097179096556001600160a01b0388166000908152848652838120845161010081018652600c60c082019081526b129859194814195b99185b9d60a21b60e0830152815280880193909352938201859052918101849052600f9581019590955294840185905280549182018155845292208151919260060201908190613adb9082614814565b506020828101516001838101919091556040808501516002850155606080860151600386015560808087015160048088019190915560a0978801516005909701805460ff1916971515979097179096556001600160a01b0388166000908152848652838120845161010081018652601860c082019081527f42617369632043756c7469766174696f6e204d616e75616c000000000000000060e083015281528088019890985293870181905291860182905260149086015294840185905280549182018155845292208151919260060201908190613bb99082614814565b5060208281015160018381019190915560408085015160028501556060808601516003860155608080870151600487015560a0968701516005968701805460ff19169115159190911790556001600160a01b0388166000908152848652838120845161010081018652600760c0820190815266145a48141a5b1b60ca1b60e08301528152808801899052948501829052928401819052908301959095529481018490528454918201855593835291208251600690920201908190613c7d9082614814565b5060208281015160018381019190915560408085015160028501556060808601516003860155608080870151600487015560a0968701516005968701805460ff19169115159190911790556001600160a01b0388166000908152848652838120845161010081018652600e60c082019081526d2432b0b634b733902837ba34b7b760911b60e083015281528088019890985293870181905291860182905260089086015294840185905280549182018155845292208151919260060201908190613d479082614814565b506020820151600182015560408201516002820155606082015160038201556080820151600482015560a0909101516005909101805460ff191691151591909117905550565b606081600003613db45750506040805180820190915260018152600360fc1b602082015290565b8160005b8115613dde5780613dc881614b59565b9150613dd79050600a83614716565b9150613db8565b60008167ffffffffffffffff811115613df957613df96142e5565b6040519080825280601f01601f191660200182016040528015613e23576020820181803683370190505b509050815b8515613eb057613e39600182614675565b90506000613e48600a88614716565b613e5390600a6146ff565b613e5d9088614675565b613e68906030614b72565b905060008160f81b905080848481518110613e8557613e85614770565b60200101906001600160f81b031916908160001a905350613ea7600a89614716565b97505050613e28565b50949350505050565b5080546000825590600052602060002090810190613ed79190613f77565b50565b60405180610180016040528060608152602001600081526020016000815260200160008152602001600081526020016000815260200160008152602001600081526020016000815260200160008152602001600015158152602001600081525090565b508054613f49906146cb565b6000825580601f10613f59575050565b601f016020900490600052602060002090810190613ed79190613f98565b80821115613f94576000613f8b8282613f3d565b50600101613f77565b5090565b5b80821115613f945760008155600101613f99565b600060208284031215613fbf57600080fd5b5035919050565b80356001600160a01b0381168114613fdd57600080fd5b919050565b600060208284031215613ff457600080fd5b613ffd82613fc6565b9392505050565b60005b8381101561401f578181015183820152602001614007565b50506000910152565b60008151808452614040816020860160208601614004565b601f01601f19169290920160200192915050565b6000815160e0845261406960e0850182614028565b90506020830151602085015260408301516040850152606083015160608501526080830151608085015260a083015160a085015260c0830151151560c08501528091505092915050565b602081526000613ffd6020830184614054565b6000602082016020835280845180835260408501915060408160051b86010192506020860160005b8281101561411f57603f1987860301845261410a858351614054565b945060209384019391909101906001016140ee565b50929695505050505050565b600081516101808452614142610180850182614028565b90506020830151602085015260408301516040850152606083015160608501526080830151608085015260a083015160a085015260c083015160c085015260e083015160e08501526101008301516101008501526101208301516101208501526101408301516141b761014086018215159052565b506101608301516101608501528091505092915050565b602081526000613ffd602083018461412b565b6040808252835190820181905260009060208501906060840190835b818110156142245783516001600160a01b03168352602093840193909201916001016141fd565b50508381036020850152809150845180825260208201925060208160051b8301016020870160005b8381101561427e57601f1985840301865261426883835161412b565b602096870196909350919091019060010161424c565b509098975050505050505050565b6000602082016020835280845180835260408501915060408160051b86010192506020860160005b8281101561411f57603f198786030184526142d0858351614028565b945060209384019391909101906001016142b4565b634e487b7160e01b600052604160045260246000fd5b600082601f83011261430c57600080fd5b813567ffffffffffffffff811115614326576143266142e5565b604051601f8201601f19908116603f0116810167ffffffffffffffff81118282101715614355576143556142e5565b60405281815283820160200185101561436d57600080fd5b816020850160208301376000918101602001919091529392505050565b60006020828403121561439c57600080fd5b813567ffffffffffffffff8111156143b357600080fd5b6143bf848285016142fb565b949350505050565b600080604083850312156143da57600080fd5b6143e383613fc6565b946020939093013593505050565b60c08152600061440460c0830189614028565b602083019790975250604081019490945260608401929092526080830152151560a090910152919050565b60e08152600061444260e083018a614028565b60208301989098525060408101959095526060850193909352608084019190915260a0830152151560c090910152919050565b6000602082016020835280845180835260408501915060408160051b86010192506020860160005b8281101561411f57603f198786030184528151805160c087526144c360c0880182614028565b90506020820151602088015260408201516040880152606082015160608801526080820151608088015260a0820151151560a0880152809650505060208201915060208401935060018101905061449d565b602081526000613ffd6020830184614028565b60008060006060848603121561453d57600080fd5b505081359360208301359350604090920135919050565b6101808152600061456961018083018f614028565b602083019d909d5250604081019a909a5260608a0198909852608089019690965260a088019490945260c087019290925260e0860152610100850152610120840152151561014083015261016090910152919050565b60008060008060008060c087890312156145d857600080fd5b6145e187613fc6565b9550602087013567ffffffffffffffff8111156145fd57600080fd5b61460989828a016142fb565b96999698505050506040850135946060810135946080820135945060a09091013592509050565b602080825260159082015274141b185e595c881b9bdd081c9959da5cdd195c9959605a1b604082015260600190565b634e487b7160e01b600052601160045260246000fd5b818103818111156146885761468861465f565b92915050565b808201808211156146885761468861465f565b634e487b7160e01b600052601260045260246000fd5b6000826146c6576146c66146a1565b500690565b600181811c908216806146df57607f821691505b60208210810361121e57634e487b7160e01b600052602260045260246000fd5b80820281158282048414176146885761468861465f565b600082614725576147256146a1565b500490565b8281526040602082015260006143bf6040830184614028565b602080825260139082015272125d195b48191bd95cc81b9bdd08195e1a5cdd606a1b604082015260600190565b634e487b7160e01b600052603260045260246000fd5b60208082526022908201527f4e6f7420656e6f7567682078697577656920666f7220627265616b7468726f756040820152610ced60f31b606082015260800190565b601f82111561480f57806000526020600020601f840160051c810160208510156147ef5750805b601f840160051c820191505b81811015610d6957600081556001016147fb565b505050565b815167ffffffffffffffff81111561482e5761482e6142e5565b6148428161483c84546146cb565b846147c8565b6020601f821160018114614879576000831561485e5750848201515b600184901b600019600386901b1c198216175b855550610d69565b600084815260208120601f198516915b828110156148a95787850151825560209485019460019092019101614889565b50848210156148c75786840151600019600387901b60f8161c191681555b50505050600190811b01905550565b6a02cb7ba9030ba3a30b1b5960ad1b8152600083516148fc81600b850160208801614004565b640103337b9160dd1b600b918401918201528351614921816010840160208801614004565b662064616d61676560c81b60109290910191820152601701949350505050565b60008351614953818460208801614004565b7001030ba3a30b1b5b9903cb7ba903337b91607d1b9083019081528351614981816011840160208801614004565b662064616d61676560c81b60119290910191820152601801949350505050565b6a02cb7ba903337bab7321d160ad1b8152600082516149c781600b850160208701614004565b91909101600b0192915050565b6802932bbb0b932399d160bd1b8152600083516149f8816009850160208801614004565b6601033b7b63216160cd1b6009918401918201528351614a1f816010840160208801614004565b6b1031bab63a34bb30ba34b7b760a11b60109290910191820152601c01949350505050565b8315158152826020820152606060408201526000614a656060830184614028565b95945050505050565b818103614a79575050565b614a8382546146cb565b67ffffffffffffffff811115614a9b57614a9b6142e5565b614aa98161483c84546146cb565b6000601f821160018114614adb576000831561485e575081850154600184901b600019600386901b1c19821617614871565b600085815260209020601f19841690600086815260209020845b83811015614b155782860154825560019586019590910190602001614af5565b5085831015614b335781850154600019600388901b60f8161c191681555b5050505050600190811b01905550565b634e487b7160e01b600052603160045260246000fd5b600060018201614b6b57614b6b61465f565b5060010190565b60ff81811683821601908111156146885761468861465f56fe4465666561742120596f75207765726520646566656174656420627920746865206d6f6e7374657221566963746f72792120596f7520646566656174656420746865206d6f6e7374657221dbfb65083408040d95d67bb4885d7c1ce49711621f729c46fdc05c37decb34a4a2646970667358221220aaac1d6432fa5911cdaf5afd95a608183c3b36958912a01c0bcdec851e57281364736f6c634300081c0033",
  "linkReferences": {},
  "deployedLinkReferences": {}
}